{
  "contractName": "Counter",
  "abi": [
    {
      "constant": true,
      "inputs": [],
      "name": "getCounter",
      "outputs": [
        {
          "internalType": "uint256",
          "name": "",
          "type": "uint256"
        }
      ],
      "payable": false,
      "stateMutability": "view",
      "type": "function"
    },
    {
      "constant": true,
      "inputs": [],
      "name": "lastupdated",
      "outputs": [
        {
          "internalType": "address",
          "name": "",
          "type": "address"
        }
      ],
      "payable": false,
      "stateMutability": "view",
      "type": "function"
    },
    {
      "constant": false,
      "inputs": [
        {
          "internalType": "uint256",
          "name": "n",
          "type": "uint256"
        }
      ],
      "name": "increment",
      "outputs": [],
      "payable": false,
      "stateMutability": "nonpayable",
      "type": "function"
    },
    {
      "constant": false,
      "inputs": [
        {
          "internalType": "uint256",
          "name": "n",
          "type": "uint256"
        }
      ],
      "name": "decrement",
      "outputs": [],
      "payable": false,
      "stateMutability": "nonpayable",
      "type": "function"
    }
  ],
  "bytecode": "0x60806040526000805534801561001457600080fd5b50610223806100246000396000f3fe608060405234801561001057600080fd5b506004361061004c5760003560e01c80633a9ebefd146100515780637cf5dab01461007f5780638ada066e146100ad578063d98ff0cd146100cb575b600080fd5b61007d6004803603602081101561006757600080fd5b8101908080359060200190929190505050610115565b005b6100ab6004803603602081101561009557600080fd5b8101908080359060200190929190505050610168565b005b6100b56101bb565b6040518082815260200191505060405180910390f35b6100d36101c4565b604051808273ffffffffffffffffffffffffffffffffffffffff1673ffffffffffffffffffffffffffffffffffffffff16815260200191505060405180910390f35b80600080828254039250508190555033600160006101000a81548173ffffffffffffffffffffffffffffffffffffffff021916908373ffffffffffffffffffffffffffffffffffffffff16021790555050565b80600080828254019250508190555033600160006101000a81548173ffffffffffffffffffffffffffffffffffffffff021916908373ffffffffffffffffffffffffffffffffffffffff16021790555050565b60008054905090565b6000600160009054906101000a900473ffffffffffffffffffffffffffffffffffffffff1690509056fea265627a7a723158202e120581a39d3ae34b340cc6fd0d9ad5edeb9b95b4b5025ceeb2d5b82782e7a864736f6c63430005100032",
  "source": "// SPDX-License-Identifier: MIT\npragma solidity >=0.4.22 <0.9.0;\n\ncontract Counter {\n  uint value = 0;\n  address lastUpdated;\n\n  function getCounter() view public returns (uint){\n    return value;\n  }\n\n  function lastupdated() view public returns (address){\n    return lastUpdated;\n  }\n\n  function increment(uint n) public{\n    value += n;\n    lastUpdated = msg.sender;\n  }\n\n  function decrement(uint n) public{\n    value -= n;\n    lastUpdated = msg.sender;\n  }\n}\n",
  "sourcePath": "C:\\Users\\Blake\\Documents\\Counter-Dapp\\counter-contract\\contracts\\Counter.sol",
  "compiler": {
    "name": "solc",
    "version": "0.5.16+commit.9c3226ce.Emscripten.clang"
  },
  "schemaVersion": "3.4.16",
  "updatedAt": "2023-11-28T18:12:19.871Z",
  "devdoc": {
    "methods": {}
  },
  "userdoc": {
    "methods": {}
  }
}