{
  "contractName": "lottery",
  "abi": [
    {
      "inputs": [],
      "stateMutability": "nonpayable",
      "type": "constructor"
    },
    {
      "inputs": [
        {
          "internalType": "address",
          "name": "",
          "type": "address"
        }
      ],
      "name": "hasEntered",
      "outputs": [
        {
          "internalType": "bool",
          "name": "",
          "type": "bool"
        }
      ],
      "stateMutability": "view",
      "type": "function"
    },
    {
      "inputs": [],
      "name": "manager",
      "outputs": [
        {
          "internalType": "address",
          "name": "",
          "type": "address"
        }
      ],
      "stateMutability": "view",
      "type": "function"
    },
    {
      "inputs": [
        {
          "internalType": "uint256",
          "name": "",
          "type": "uint256"
        }
      ],
      "name": "players",
      "outputs": [
        {
          "internalType": "address",
          "name": "",
          "type": "address"
        }
      ],
      "stateMutability": "view",
      "type": "function"
    },
    {
      "inputs": [],
      "name": "getPrizePool",
      "outputs": [
        {
          "internalType": "uint256",
          "name": "",
          "type": "uint256"
        }
      ],
      "stateMutability": "view",
      "type": "function"
    },
    {
      "inputs": [],
      "name": "getNumPlayers",
      "outputs": [
        {
          "internalType": "uint256",
          "name": "",
          "type": "uint256"
        }
      ],
      "stateMutability": "view",
      "type": "function"
    },
    {
      "inputs": [],
      "name": "getPlayerAddresses",
      "outputs": [
        {
          "internalType": "address[]",
          "name": "",
          "type": "address[]"
        }
      ],
      "stateMutability": "view",
      "type": "function"
    },
    {
      "inputs": [],
      "name": "getManager",
      "outputs": [
        {
          "internalType": "address",
          "name": "",
          "type": "address"
        }
      ],
      "stateMutability": "view",
      "type": "function"
    },
    {
      "inputs": [],
      "name": "enter",
      "outputs": [],
      "stateMutability": "payable",
      "type": "function"
    },
    {
      "inputs": [],
      "name": "pickWinner",
      "outputs": [],
      "stateMutability": "payable",
      "type": "function"
    }
  ],
  "bytecode": "0x60806040526000805534801561001457600080fd5b5033600160006101000a81548173ffffffffffffffffffffffffffffffffffffffff021916908373ffffffffffffffffffffffffffffffffffffffff160217905550610e86806100656000396000f3fe6080604052600436106100865760003560e01c8063724d492411610059578063724d492414610128578063884bf67c14610153578063d50095841461017e578063e97dcb62146101a9578063f71d96cb146101b357610086565b806324d70dea1461008b578063481c6a75146100c857806355c9e926146100f35780635d495aea1461011e575b600080fd5b34801561009757600080fd5b506100b260048036038101906100ad91906107fd565b6101f0565b6040516100bf9190610b7b565b60405180910390f35b3480156100d457600080fd5b506100dd610210565b6040516100ea9190610b3e565b60405180910390f35b3480156100ff57600080fd5b50610108610236565b6040516101159190610bf6565b60405180910390f35b610126610243565b005b34801561013457600080fd5b5061013d6104d3565b60405161014a9190610b59565b60405180910390f35b34801561015f57600080fd5b50610168610561565b6040516101759190610bf6565b60405180910390f35b34801561018a57600080fd5b50610193610569565b6040516101a09190610b3e565b60405180910390f35b6101b1610593565b005b3480156101bf57600080fd5b506101da60048036038101906101d59190610826565b610720565b6040516101e79190610b3e565b60405180910390f35b60036020528060005260406000206000915054906101000a900460ff1681565b600160009054906101000a900473ffffffffffffffffffffffffffffffffffffffff1681565b6000600280549050905090565b600160009054906101000a900473ffffffffffffffffffffffffffffffffffffffff1673ffffffffffffffffffffffffffffffffffffffff163373ffffffffffffffffffffffffffffffffffffffff161461029d57600080fd5b6000600280549050116102e5576040517f08c379a00000000000000000000000000000000000000000000000000000000081526004016102dc90610bb6565b60405180910390fd5b60006002805490506102f561075f565b6102ff9190610d73565b905060006002828154811061033d577f4e487b7100000000000000000000000000000000000000000000000000000000600052603260045260246000fd5b9060005260206000200160009054906101000a900473ffffffffffffffffffffffffffffffffffffffff16905060008173ffffffffffffffffffffffffffffffffffffffff164760405161039090610af0565b60006040518083038185875af1925050503d80600081146103cd576040519150601f19603f3d011682016040523d82523d6000602084013e6103d2565b606091505b50509050806103e057600080fd5b60005b6002805490508110156104bf5760006003600060028481548110610430577f4e487b7100000000000000000000000000000000000000000000000000000000600052603260045260246000fd5b9060005260206000200160009054906101000a900473ffffffffffffffffffffffffffffffffffffffff1673ffffffffffffffffffffffffffffffffffffffff1673ffffffffffffffffffffffffffffffffffffffff16815260200190815260200160002060006101000a81548160ff02191690831515021790555080806104b790610d20565b9150506103e3565b50600260006104ce9190610795565b505050565b6060600280548060200260200160405190810160405280929190818152602001828054801561055757602002820191906000526020600020905b8160009054906101000a900473ffffffffffffffffffffffffffffffffffffffff1673ffffffffffffffffffffffffffffffffffffffff168152602001906001019080831161050d575b5050505050905090565b600047905090565b6000600160009054906101000a900473ffffffffffffffffffffffffffffffffffffffff16905090565b600034116105d6576040517f08c379a00000000000000000000000000000000000000000000000000000000081526004016105cd90610b96565b60405180910390fd5b600360003373ffffffffffffffffffffffffffffffffffffffff1673ffffffffffffffffffffffffffffffffffffffff16815260200190815260200160002060009054906101000a900460ff1615610663576040517f08c379a000000000000000000000000000000000000000000000000000000000815260040161065a90610bd6565b60405180910390fd5b6002339080600181540180825580915050600190039060005260206000200160009091909190916101000a81548173ffffffffffffffffffffffffffffffffffffffff021916908373ffffffffffffffffffffffffffffffffffffffff1602179055506001600360003373ffffffffffffffffffffffffffffffffffffffff1673ffffffffffffffffffffffffffffffffffffffff16815260200190815260200160002060006101000a81548160ff021916908315150217905550565b6002818154811061073057600080fd5b906000526020600020016000915054906101000a900473ffffffffffffffffffffffffffffffffffffffff1681565b60004342600260405160200161077793929190610b05565b6040516020818303038152906040528051906020012060001c905090565b50805460008255906000526020600020908101906107b391906107b6565b50565b5b808211156107cf5760008160009055506001016107b7565b5090565b6000813590506107e281610e22565b92915050565b6000813590506107f781610e39565b92915050565b60006020828403121561080f57600080fd5b600061081d848285016107d3565b91505092915050565b60006020828403121561083857600080fd5b6000610846848285016107e8565b91505092915050565b600061085b838361087f565b60208301905092915050565b6000610873838361089d565b60208301905092915050565b61088881610cbe565b82525050565b61089781610cbe565b82525050565b6108a681610cbe565b82525050565b60006108b782610c36565b6108c18185610c66565b93506108cc83610c11565b8060005b838110156108fd5781516108e4888261084f565b97506108ef83610c4c565b9250506001810190506108d0565b5085935050505092915050565b600061091582610c41565b61091f8185610c77565b935061092a83610c21565b8060005b838110156109625761093f82610e02565b6109498882610867565b975061095483610c59565b92505060018101905061092e565b5085935050505092915050565b61097881610cd0565b82525050565b600061098b602e83610c8d565b91507f596f75206d7573742073656e6420736f6d6520457468657220746f20656e746560008301527f7220746865206c6f74746572792e0000000000000000000000000000000000006020830152604082019050919050565b60006109f1602183610c8d565b91507f4e6f207061727469636970616e747320746f207069636b20612077696e6e657260008301527f2e000000000000000000000000000000000000000000000000000000000000006020830152604082019050919050565b6000610a57602583610c8d565b91507f596f75206861766520616c726561647920656e746572656420746865206c6f7460008301527f746572792e0000000000000000000000000000000000000000000000000000006020830152604082019050919050565b6000610abd600083610c82565b9150600082019050919050565b610ad381610cfc565b82525050565b610aea610ae582610cfc565b610d69565b82525050565b6000610afb82610ab0565b9150819050919050565b6000610b118286610ad9565b602082019150610b218285610ad9565b602082019150610b31828461090a565b9150819050949350505050565b6000602082019050610b53600083018461088e565b92915050565b60006020820190508181036000830152610b7381846108ac565b905092915050565b6000602082019050610b90600083018461096f565b92915050565b60006020820190508181036000830152610baf8161097e565b9050919050565b60006020820190508181036000830152610bcf816109e4565b9050919050565b60006020820190508181036000830152610bef81610a4a565b9050919050565b6000602082019050610c0b6000830184610aca565b92915050565b6000819050602082019050919050565b60008190508160005260206000209050919050565b600081519050919050565b600081549050919050565b6000602082019050919050565b6000600182019050919050565b600082825260208201905092915050565b600081905092915050565b600081905092915050565b600082825260208201905092915050565b600073ffffffffffffffffffffffffffffffffffffffff82169050919050565b6000610cc982610cdc565b9050919050565b60008115159050919050565b600073ffffffffffffffffffffffffffffffffffffffff82169050919050565b6000819050919050565b6000610d19610d1483610e15565b610c9e565b9050919050565b6000610d2b82610cfc565b91507fffffffffffffffffffffffffffffffffffffffffffffffffffffffffffffffff821415610d5e57610d5d610da4565b5b600182019050919050565b6000819050919050565b6000610d7e82610cfc565b9150610d8983610cfc565b925082610d9957610d98610dd3565b5b828206905092915050565b7f4e487b7100000000000000000000000000000000000000000000000000000000600052601160045260246000fd5b7f4e487b7100000000000000000000000000000000000000000000000000000000600052601260045260246000fd5b6000610e0e8254610d06565b9050919050565b60008160001c9050919050565b610e2b81610cbe565b8114610e3657600080fd5b50565b610e4281610cfc565b8114610e4d57600080fd5b5056fea2646970667358221220f26c46ba1ea6b8b00ccdfb3996299ac68386dde2e24092d501892a22db2c3fa664736f6c63430008000033",
  "immutableReferences": {},
  "source": "// SPDX-License-Identifier: MIT\npragma solidity >=0.4.22 <0.9.0;\n\ncontract lottery {\n  uint value = 0;\n  address public manager;\n  address[] public players;\n  mapping(address => bool) public hasEntered; // Mapping to track whether a player has entered\n\nmodifier onlyManager(){\n        require(msg.sender == manager); // Require manager\n        _;\n    }\n\nconstructor(){\n        manager = msg.sender; // Initialize manager\n    }\n\n  function getPrizePool() public view returns (uint) {\n        return address(this).balance; // Returns prize pool\n    }\n\n  function getNumPlayers() public view returns (uint) {\n        return players.length; // Returns # of players\n    }\n    \nfunction getPlayerAddresses() public view returns (address[] memory) {\n    return players; // Player addresses\n}\n  \nfunction getManager() public view returns (address) {\n        return manager; // Manager address\n    }\n\n  function enter() public payable {\n        require(msg.value > 0, \"You must send some Ether to enter the lottery.\"); // Enter contract, however need ETH, updates players\n        require(!hasEntered[msg.sender], \"You have already entered the lottery.\"); // Check if player has already entered\n\n        players.push(msg.sender);\n        hasEntered[msg.sender] = true; // Mark the player as entered\n    }\n\n    // Randomly pick a winner\n    function pickWinner() public payable onlyManager {\n        require(players.length > 0, \"No participants to pick a winner.\");\n\n        // Generate random index based on block information\n        uint index = random() % players.length;\n        \n        address winner = players[index];\n        // Transfer prize pool to the winner\n        (bool success, ) = winner.call{value: address(this).balance}(\"\");\n        require(success);\n        \n\n        for (uint i = 0; i < players.length; i++) {\n        hasEntered[players[i]] = false;\n    }\n    delete players;\n}\n\n// Generate a pseudo-random number\n    function random() private view returns (uint) {\n        return uint(keccak256(abi.encodePacked(block.number, block.timestamp, players)));\n    }\n\n}",
  "sourcePath": "C:\\Users\\Blake\\Desktop\\myproject\\lottery-contract\\contracts\\Lottery.sol",
  "compiler": {
    "name": "solc",
    "version": "0.8.0+commit.c7dfd78e.Emscripten.clang"
  },
  "schemaVersion": "3.4.16",
  "updatedAt": "2023-12-08T19:35:22.853Z",
  "devdoc": {
    "kind": "dev",
    "methods": {},
    "version": 1
  },
  "userdoc": {
    "kind": "user",
    "methods": {},
    "version": 1
  }
}